:020000040000FA
:06000000E9EF21F01200FF
:020006001200E6
:06000800BEEF1FF0120024
:02000E000000F0
:020010000000EE
:0600180049EF1FF0120089
:02001E000600DA
:10002000BF440000000F000028000000A3440000AF
:10003000E10000001C0000000E000000290100008B
:100040000400000042440000800000006100000045
:100050002A440000680F0000180000000A44000055
:08006000480F00002000000021
:08006800D9CFE6FFE1CFD9FF7B
:10007000040EE126DE6ADD6A020EDB6A030EDB6A2D
:10008000BDD905EC0EF0FCEC0FF0010EE66EE66A51
:1000900071D9E552E5523EEC0BF035EC20F00F0142
:1000A0005351FDE0536B020EDB2A030E01E3DB2A02
:1000B000AAEC1BF028CF08F029CF09F056EC16F077
:1000C00007C014F008C015F009C016F00AC017F0F8
:1000D0000A0E0C6ED70E0D6E230E0E6E410E0F6EB5
:1000E0006BEC16F0CCEC17F008C07EFF09C07FFF68
:1000F000010EE66E430EE66EE66AE66A71EC12F0F9
:10010000E552E552E552E5527ECF14F07FCF15F06F
:10011000166A176A7ECFE6FF7FCFE6FF16C0E6FFBE
:1001200017C0E6FFE66A010EE66E9CEC12F0186E50
:10013000060EE15E18502ACF08F02BCF09F056ECDE
:1001400016F007C014F008C015F009C016F00AC078
:1001500017F00A0E0C6ED70E0D6E230E0E6E410EAA
:100160000F6E6BEC16F0CCEC17F008C07EFF09C0E8
:100170007FFFFE0EE66E420EE66E030EE66EE66A48
:1001800071EC12F0E552E552E552E5527ECF14F0E3
:100190007FCF15F0166A176A7ECFE6FF7FCFE6FFA6
:1001A00016C0E6FF17C0E6FF030EE66E010EE66E10
:1001B0009CEC12F0186E060EE15E18502CCF08F081
:1001C0002DCF09F056EC16F007C014F008C015F05A
:1001D00009C016F00AC017F00A0E0C6ED70E0D6E8D
:1001E000230E0E6E410E0F6E6BEC16F0CCEC17F07A
:1001F00008C07EFF09C07FFFFB0EE66E420EE66E72
:10020000060EE66EE66A71EC12F0E552E552E55232
:10021000E5527ECF14F07FCF15F0166A176A7ECFB5
:10022000E6FF7FCFE6FF16C0E6FF17C0E6FF060E2B
:10023000E66E010EE66E9CEC12F0186E060EE15EA4
:1002400018502ECF08F02FCF09F056EC16F007C04B
:1002500014F008C015F009C016F00AC017F00A0E15
:100260000C6ED70E0D6E230E0E6E410E0F6E6BECE4
:1002700016F0CCEC17F008C07EFF09C07FFFF80E27
:10028000E66E420EE66E090EE66EE66A71EC12F05C
:10029000E552E552E552E5527ECF14F07FCF15F0DE
:1002A000166A176A7ECFE6FF7FCFE6FF16C0E6FF2D
:1002B00017C0E6FF090EE66E010EE66E9CEC12F02A
:1002C000186E060EE15E185030CF08F031CF09F0FD
:1002D00056EC16F007C014F008C015F009C016F06F
:1002E0000AC017F00A0E0C6ED70E0D6E230E0E6E9E
:1002F000410E0F6E6BEC16F0CCEC17F008C07EFFD1
:1003000009C07FFFF50EE66E420EE66E0C0EE66E3D
:10031000E66A71EC12F0E552E552E552E5527ECF05
:1003200014F07FCF15F0166A176A7ECFE6FF7FCFF5
:10033000E6FF16C0E6FF17C0E6FF0C0EE66E010EE4
:10034000E66E9CEC12F0186E060EE15E1850D95065
:10035000020FE96EDACFEAFF200EEE1808E1030E75
:10036000ED1805E187DB020EDB6A030EDB6A2BEC7E
:1003700010F093D6D9CFE6FFE1CFD9FF040EE126E6
:10038000DE6ADD6ADECF14F0DDCF15F0FD0EDBCFC7
:1003900016F0FE0EDBCF17F015501718E8AE02D09E
:1003A000173404D01650145C175015581DE2020E75
:1003B000DB6A030EDB6A020EDBCF14F0030EDBCF29
:1003C00015F0D890155004E6EE0E145C000E15588A
:1003D00006E2020EDB2A030EEEE3DB2AECD7DF2A6D
:1003E000010ED0E3DB2ACED7040EE15C02E2E16A23
:1003F000E552E16EE552E7CFD9FF1200936A010E94
:10040000926E5CEC0CF0836A41EC1FF0E80EE66E35
:10041000030EE66EAFDFE552E552570EE66E120EA2
:10042000E66E04EC13F0E552E552AE0EE66E240ED5
:10043000E66EA6EC13F0E552E552660EE66EB70ED8
:10044000E66E67EC14F0E552E552020EE66EE66ADF
:1004500006EC16F0E552E5520A0EE66EE66A18EC76
:1004600016F0E552E552320EE66EE66A37EC16F00B
:10047000E552E552C5EC1BF01FEC19F029EC20F019
:100480004DEF1EF0D9CFE6FFE1CFD9FFFE0EDBCF57
:1004900015F0800E15141AE1FD0EDBCF16F0FE0EDE
:1004A000DBCF17F0173404E216500708000E17547C
:1004B0000DE3FD0EDBCFE9FFFE0EDBCFEAFF680E9A
:1004C000E9260F0EEA22EF508310836EE552E7CF44
:1004D000D9FF1200D9CFE6FFE1CFD9FFFE0EDBCF67
:1004E00015F0800E15141AE1FD0EDBCF16F0FE0E8E
:1004F000DBCF17F0173404E216500708000E17542C
:100500000DE3FD0EDBCFE9FFFE0EDBCFEAFF680E49
:10051000E9260F0EEA22EF1C8314836EE552E7CF23
:10052000D9FF1200D9CFE6FFE1CFD9FFFD0EDBCF17
:10053000E9FFFE0EDBCFEAFF700EE9260F0EEA227E
:10054000EF0415E1FD0EDBCFE6FFFE0EDBCFE6FF8D
:10055000C1DFE552E552FD0EDBCFE9FFFE0EDBCF3A
:10056000EAFF700EE9260F0EEA22EF6A15D0FD0EA3
:10057000DBCFE6FFFE0EDBCFE6FF84DFE552E55280
:10058000FD0EDBCFE9FFFE0EDBCFEAFF700EE926A2
:100590000F0EEA22010EEF6EE552E7CFD9FF1200EF
:1005A000D9CFE6FFE1CFD9FF020EE126DE6ADD6A90
:1005B000DECF14F0DDCF15F0153404E21450070837
:1005C000000E155421E3DECFE6FFDDCFE6FF5ADF54
:1005D000E552E552F40EE66E010EE66ECBDEE55214
:1005E000E552DECFE6FFDDCFE6FF74DFE552E552F0
:1005F000F40EE66E010EE66EBDDEE552E552DF2A30
:10060000010ED6E3DB2AD4D7020EE15C02E2E16AF6
:10061000E552E16EE552E7CFD9FF1200D9CFE6FFF0
:10062000E1CFD9FF080EE12635EC20F0F3CF14F02E
:10063000F4CF15F0166A176A15AE02D0166817685F
:10064000040E14C0DBFF050E15C0DBFF060E16C03E
:10065000DBFF070E17C0DBFF040EDBCF06F0050E35
:10066000DBCF07F0060EDBCF08F0070EDBCF09F07B
:100670008C0E0B6E0C6A0D6A0E6A23EC21F002C020
:1006800006F003C007F004C008F005C009F00B68CD
:10069000030E0C6E0D6A0E6A82EC21F006C0DEFFBE
:1006A00007C0DEFF08C0DEFF09C0DDFFDD52DD52FE
:1006B0000A0EE66E72EC19F0E5520D0EE66E72EC63
:1006C00019F0E552E40EE66E420EE66EE66AE66A60
:1006D00071EC12F0E552E552E552E552D9CFE9FF4F
:1006E000DACFEAFF640EEE5C000EEE58000EEE5814
:1006F000000EEE5801E3A1D0D9CFE9FFDACFEAFF2F
:10070000EECF14F0EECF15F0EECF16F0EFCF17F0DE
:100710000A0E0B6E0C6A0D6A0E6A14C006F015C044
:1007200007F016C008F017C009F082EC21F006C0EF
:1007300014F007C015F008C016F009C017F006C085
:10074000E6FF07C0E6FF08C0E6FF09C0E6FF0A0EA5
:10075000E66EE66A4AEC11F0186E060EE15E18507D
:10076000D9CFE9FFDACFEAFFEECF14F0EECF15F0E4
:10077000EECF16F0EFCF17F00A0E0B6E0C6A0D6A73
:100780000E6A14C006F015C007F016C008F017C0B6
:1007900009F082EC21F006C014F007C015F008C083
:1007A00016F009C017F0300E1426000E152216227E
:1007B00017221450E66E72EC19F0E552E20EE66E66
:1007C000420EE66E0B0EE66EE66A71EC12F0E55232
:1007D000E552E552E5522E0EE66E72EC19F0E55246
:1007E000D9CFE9FFDACFEAFFEECF14F0EECF15F064
:1007F000EECF16F0EFCF17F00A0E0B6E0C6A0D6AF3
:100800000E6A14C006F015C007F016C008F017C035
:1008100009F082EC21F002C014F003C015F004C00E
:1008200016F005C017F002C0E6FF03C0E6FF04C0E3
:10083000E6FF05C0E6FF0C0EDDD0D9CFE9FFDACF29
:10084000EAFFEECF14F0EECF15F0EECF16F0EFCFBB
:1008500017F00A0E0B6E0C6A0D6A0E6A14C006F0D1
:1008600015C007F016C008F017C009F082EC21F09F
:1008700006C014F007C015F008C016F009C017F044
:1008800006C0E6FF07C0E6FF08C0E6FF09C0E6FFB6
:100890000A0EE66EE66A4AEC11F0186E060EE15E8C
:1008A0001850D9CFE9FFDACFEAFFEECF14F0EECF40
:1008B00015F0EECF16F0EFCF17F0640E0B6E0C6A4A
:1008C0000D6A0E6A14C006F015C007F016C008F0D5
:1008D00017C009F082EC21F006C014F007C015F033
:1008E00008C016F009C017F0300E1426000E1522AD
:1008F000162217221450E66E72EC19F0E552D9CF89
:10090000E9FFDACFEAFFEECF14F0EECF15F0EECF2D
:1009100016F0EFCF17F00A0E0B6E0C6A0D6A0E6A16
:1009200014C006F015C007F016C008F017C009F093
:1009300082EC21F006C014F007C015F008C016F0D4
:1009400009C017F00A0E0B6E0C6A0D6A0E6A82EC73
:1009500021F002C014F003C015F004C016F005C069
:1009600017F0300E1426000E1522162217221450EE
:10097000E66E72EC19F0E552E20EE66E420EE66E9D
:100980000C0EE66EE66A71EC12F0E552E552E552A5
:10099000E5522E0EE66E72EC19F0E552D9CFE9FF62
:1009A000DACFEAFFEECF14F0EECF15F0EECF16F06F
:1009B000EFCF17F00A0E0B6E0C6A0D6A0E6A14C0A8
:1009C00006F015C007F016C008F017C009F082EC59
:1009D00021F002C014F003C015F004C016F005C0E9
:1009E00017F002C0E6FF03C0E6FF04C0E6FF05C043
:1009F000E6FF0D0EE66EE66A4AEC11F0186E060E82
:100A0000E15E1850D9CFE9FFDACFEAFFEECF14F05C
:100A1000EECF15F0EECF16F0EFCF17F00A0E0B6EFB
:100A20000C6A0D6A0E6A14C006F015C007F016C0F5
:100A300008F017C009F082EC21F002C014F003C0E6
:100A400015F004C016F005C017F0300E1426000E85
:100A50001522162217221450E66E72EC19F0E55298
:100A6000080EE15C02E2E16AE552E16EE552E7CF91
:100A7000D9FF1200DF0EE66E420EE66EA0EC19F012
:100A8000E552E552DB0EE66E420EE66EA0EC19F082
:100A9000E552E55228CF08F029CF09F056EC16F0C0
:100AA00007C018F008C019F009C01AF00AC01BF0FE
:100AB0000A0E0C6ED70E0D6E230E0E6E410E0F6ECB
:100AC0006BEC16F007C014F008C015F009C016F062
:100AD0000AC017F00C6A0D6A200E0E6E410E0F6EE2
:100AE0003BEC18F0010A08E1D90EE66E420EE66E04
:100AF000A0EC19F0E552E55228CF08F029CF09F013
:100B000056EC16F007C018F008C019F009C01AF02A
:100B10000AC01BF00A0E0C6ED70E0D6E230E0E6E61
:100B2000410E0F6E6BEC16F0FBEC17F006C014F0E4
:100B300007C015F008C016F009C017F006C0E6FFA0
:100B400007C0E6FF08C0E6FF09C0E6FF37EC1AF071
:100B5000E552E552E552E552D70EE66E420EE66EDC
:100B6000A0EC19F0E552E552D30EE66E420EE66EA9
:100B7000A0EC19F0E552E5522ACF08F02BCF09F08E
:100B800056EC16F007C018F008C019F009C01AF0AA
:100B90000AC01BF00A0E0C6ED70E0D6E230E0E6EE1
:100BA000410E0F6E6BEC16F007C014F008C015F084
:100BB00009C016F00AC017F00C6A0D6A200E0E6EFE
:100BC000410E0F6E3BEC18F0010A08E1D90EE66EFB
:100BD000420EE66EA0EC19F0E552E5522ACF08F07D
:100BE0002BCF09F056EC16F007C018F008C019F02A
:100BF00009C01AF00AC01BF00A0E0C6ED70E0D6E5B
:100C0000230E0E6E410E0F6E6BEC16F0FBEC17F020
:100C100006C014F007C015F008C016F009C017F0A0
:100C200006C0E6FF07C0E6FF08C0E6FF09C0E6FF12
:100C300037EC1AF0E552E552E552E552D70EE66E72
:100C4000420EE66EA0EC19F0E552E552CF0EE66ECC
:100C5000420EE66EA0EC19F0E552E5522CCF08F0FA
:100C60002DCF09F056EC16F007C018F008C019F0A7
:100C700009C01AF00AC01BF00A0E0C6ED70E0D6EDA
:100C8000230E0E6E410E0F6E6BEC16F007C014F0C3
:100C900008C015F009C016F00AC017F00C6A0D6AFA
:100CA000200E0E6E410E0F6E3BEC18F0010A08E1AB
:100CB000D90EE66E420EE66EA0EC19F0E552E55252
:100CC0002CCF08F02DCF09F056EC16F007C018F025
:100CD00008C019F009C01AF00AC01BF00A0E0C6E09
:100CE000D70E0D6E230E0E6E410E0F6E6BEC16F0CE
:100CF000FBEC17F006C014F007C015F008C016F0A2
:100D000009C017F006C0E6FF07C0E6FF08C0E6FF0F
:100D100009C0E6FF37EC1AF0E552E552E552E5521C
:100D2000D70EE66E420EE66EA0EC19F0E552E552E3
:100D3000CB0EE66E420EE66EA0EC19F0E552E552DF
:100D40002ECF08F02FCF09F056EC16F007C018F0A0
:100D500008C019F009C01AF00AC01BF00A0E0C6E88
:100D6000D70E0D6E230E0E6E410E0F6E6BEC16F04D
:100D700007C014F008C015F009C016F00AC017F03B
:100D80000C6A0D6A200E0E6E410E0F6E3BEC18F0D1
:100D9000010A08E1D90EE66E420EE66EA0EC19F0EB
:100DA000E552E5522ECF08F02FCF09F056EC16F0A1
:100DB00007C018F008C019F009C01AF00AC01BF0EB
:100DC0000A0E0C6ED70E0D6E230E0E6E410E0F6EB8
:100DD0006BEC16F0FBEC17F006C014F007C015F032
:100DE00008C016F009C017F006C0E6FF07C0E6FF0E
:100DF00008C0E6FF09C0E6FF37EC1AF0E552E552FD
:100E0000E552E552D70EE66E420EE66EA0EC19F002
:100E1000E552E552C70EE66E420EE66EA0EC19F002
:100E2000E552E55230CF08F031CF09F056EC16F01C
:100E300007C018F008C019F009C01AF00AC01BF06A
:100E40000A0E0C6ED70E0D6E230E0E6E410E0F6E37
:100E50006BEC16F007C014F008C015F009C016F0CE
:100E60000AC017F00C6A0D6A200E0E6E410E0F6E4E
:100E70003BEC18F0010A08E1D90EE66E420EE66E70
:100E8000A0EC19F0E552E55230CF08F031CF09F06F
:100E900056EC16F007C018F008C019F009C01AF097
:100EA0000AC01BF00A0E0C6ED70E0D6E230E0E6ECE
:100EB000410E0F6E6BEC16F0FBEC17F006C014F051
:100EC00007C015F008C016F009C017F006C0E6FF0D
:100ED00007C0E6FF08C0E6FF09C0E6FF37EC1AF0DE
:100EE000E552E552E552E552D70EE66E420EE66E49
:100EF000A0EC19F0E552E552C20EE66E420EE66E27
:100F0000A0EC19F0E552E5528150010B010A146E74
:100F1000156A166A176A14AE03D015681668176842
:100F200014C0E6FF15C0E6FF16C0E6FF17C0E6FFD7
:100F300037EC1AF0E552E552E552E552D70EE66E6F
:100F4000420EE66EA0EC19F0E552E552BD0EE66EDB
:100F5000420EE66EA0EC19F0E552E5528150020B0C
:100F6000020A01E0010E146E156A166A176A14AEC1
:100F700003D015681668176814C0E6FF15C0E6FFB1
:100F800016C0E6FF17C0E6FF37EC1AF0E552E5524F
:100F9000E552E552BA0EE66E420EE66EA0EC19F08E
:100FA000E552E5521200D9CFE6FFE1CFD9FF020E9C
:100FB000E126010E01010025006F000E0121016FE5
:100FC000280E0D6E0E6A00C108F001C109F0C3ECD5
:100FD00021F004C000F105C001F101010450051029
:100FE00001E082D135EC20F0F3CF1CF0F4CF1DF0FE
:100FF000F3CF08F0F4CF09F058EC16F007C018F062
:1010000008C019F009C01AF00AC01BF0140E0C6ECB
:10101000AE0E0D6E230E0E6E410E0F6E6BEC16F0C3
:1010200007C014F008C015F009C016F00AC017F088
:101030000C6A0D6AC80E0E6E420E0F6EBEEC16F0F4
:10104000CCEC17F008C0DEFF09C0DDFF010E010186
:101050000225026F000E0321036F640E0D6E0E6AEF
:1010600002C108F003C109F0C3EC21F004C002F191
:1010700005C003F1DECF06F0DDCF07F0086A096A8C
:1010800007AE02D008680968780E0B6E050E0C6E6C
:101090000D6A0E6A23EC21F002C006F003C007F0CF
:1010A00004C008F005C009F00B68030E0C6E0D6A51
:1010B0000E6A98EC17F006C004F107C005F1DECF08
:1010C00006F0DDCF07F0086A096A07AE02D00868AB
:1010D0000968880E0B6E130E0C6E0D6A0E6A23ECF7
:1010E00021F002C006F003C007F004C008F005C0FC
:1010F00009F00B68030E0C6E0D6A0E6A98EC17F07F
:1011000006C006F107C007F1DECF06F0DDCF07F01D
:10111000086A096A07AE02D008680968F40E0B6E07
:10112000010E0C6E0D6A0E6A23EC21F002C006F06F
:1011300003C007F004C008F005C009F00B68030EF7
:101140000C6E0D6A0E6A98EC17F006C008F107C025
:1011500009F1DECF06F0DDCF07F0086A096A07AEB5
:1011600002D008680968E80E0B6E030E0C6E0D6A5B
:101170000E6A23EC21F002C006F003C007F004C0A1
:1011800008F005C009F00B68030E0C6E0D6A0E6ABC
:1011900098EC17F006C00AF107C00BF1DECF06F09D
:1011A000DDCF07F0086A096A07AE02D0086809684F
:1011B000D00E0B6E070E0C6E0D6A0E6A23EC21F03A
:1011C00002C006F003C007F004C008F005C009F033
:1011D0000B68030E0C6E0D6A0E6A98EC17F006C0D1
:1011E0000CF107C00DF1DECF14F0DDCF15F0166A5B
:1011F000176A15AE02D016681768D00E0B6E070E70
:101200000C6E0D6A0E6A14C006F015C007F016C009
:1012100008F017C009F023EC21F002C014F003C05D
:1012200015F004C016F005C017F00B68030E0C6E25
:101230000D6A0E6A02C006F003C007F004C008F091
:1012400005C009F098EC17F006C014F007C015F0BF
:1012500008C016F009C017F0D00E1426070E15228C
:10126000000E1622172214C00EF115C00FF1DECFAA
:1012700006F0DDCF07F0086A096A07AE02D00868F9
:101280000968100E0B6E270E0C6E0D6A0E6A23ECA9
:1012900021F002C006F003C007F004C008F005C04A
:1012A00009F00B68030E0C6E0D6A0E6A98EC17F0CD
:1012B00006C010F107C011F1DF0EE66E420EE66EB9
:1012C000A0EC19F0E552E552DECFE6FFDDCFE6FFF8
:1012D00052EC1BF0E552E552BA0EE66E420EE66E97
:1012E000A0EC19F0E552E552020EE15C02E2E16A7F
:1012F000E552E16EE552E7CFD9FF1200E66AFEEC57
:101300001EF0E5520F01786F010EE66EFEEC1EF046
:10131000E5520F01796F020EE66EFEEC1EF0E5520B
:101320000F017A6F040EE66EFEEC1EF0E5520F011F
:101330007B6F050EE66EFEEC1EF0E5520F017C6F32
:10134000060EE66EFEEC1EF0E5520F017D6F0A0EF2
:10135000186E0E6E7BCF09F02BEC17F009C014F05D
:10136000156A166A176A14AE03D0156816681768EE
:1013700014C0E6FF15C0E6FF16C0E6FF17C0E6FF83
:1013800037EC1AF0E552E552E552E5527BCF09F011
:101390000A0E0E6E2BEC17F005C014F0156A166AD3
:1013A000176A14AE03D015681668176814C0E6FFF4
:1013B00015C0E6FF16C0E6FF17C0E6FF37EC1AF0CF
:1013C000E552E552E552E552E20EE66E420EE66E59
:1013D000A0EC19F0E552E5520A0E186E0E6E7CCFA5
:1013E00009F02BEC17F009C014F0156A166A176A99
:1013F00014AE03D015681668176814C0E6FF15C050
:10140000E6FF16C0E6FF17C0E6FF37EC1AF0E5521C
:10141000E552E552E5527CCF09F00A0E0E6E2BEC38
:1014200017F005C014F0156A166A176A14AE03D0D7
:1014300015681668176814C0E6FF15C0E6FF16C0E9
:10144000E6FF17C0E6FF37EC1AF0E552E552E55229
:10145000E552E20EE66E420EE66EA0EC19F0E552A1
:10146000E5520A0E186E0E6E7DCF09F02BEC17F0C8
:1014700009C014F0156A166A176A14AE03D015680D
:101480001668176814C0E6FF15C0E6FF16C0E6FF31
:1014900017C0E6FF37EC1AF0E552E552E552E55287
:1014A0007DCF09F00A0E0E6E2BEC17F005C014F07C
:1014B000156A166A176A14AE03D01568166817689D
:1014C00014C0E6FF15C0E6FF16C0E6FF17C0E6FF32
:1014D00037EC1AF0E552E552E552E552B80EE66EE9
:1014E000420EE66EA0EC19F0E552E5520A0E186EB7
:1014F0000E6E7ACF09F02BEC17F009C014F0156AC4
:10150000166A176A14AE03D015681668176814C0F7
:10151000E6FF15C0E6FF16C0E6FF17C0E6FF37EC92
:101520001AF0E552E552E552E5527ACF09F00A0E7B
:101530000E6E2BEC17F005C014F0156A166A176AC8
:1015400014AE03D015681668176814C0E6FF15C0FE
:10155000E6FF16C0E6FF17C0E6FF37EC1AF0E552CB
:10156000E552E552E552B60EE66E420EE66EA0EC8E
:1015700019F0E552E5520A0E186E0E6E79CF09F099
:101580002BEC17F009C014F0156A166A176A14AE2E
:1015900003D015681668176814C0E6FF15C0E6FF8B
:1015A00016C0E6FF17C0E6FF37EC1AF0E552E55229
:1015B000E552E55279CF09F00A0E0E6E2BEC17F0CA
:1015C00005C014F0156A166A176A14AE03D01568C0
:1015D0001668176814C0E6FF15C0E6FF16C0E6FFE0
:1015E00017C0E6FF37EC1AF0E552E552E552E55236
:1015F000B60EE66E420EE66EA0EC19F0E552E5522C
:101600000A0E186E0E6E78CF09F02BEC17F009C099
:1016100014F0156A166A176A14AE03D015681668B6
:10162000176814C0E6FF15C0E6FF16C0E6FF17C036
:10163000E6FF37EC1AF0E552E552E552E55278CF75
:1016400009F00A0E0E6E2BEC17F005C014F0156AA7
:10165000166A176A14AE03D015681668176814C0A6
:10166000E6FF15C0E6FF16C0E6FF17C0E6FF37EC41
:101670001AF0E552E552E552E5521200200EE66EF0
:1016800034EC1FF0E552220809E009D8220EE66E7C
:10169000200EE66E23EC1FF0E552E55212000F011A
:1016A000320E786F3B0E796F170E7A6F1F0E7B6FBD
:1016B0000C0E7C6F0E0E7D6F78CFE6FFE66AE3ECD2
:1016C0001EF0E552E55279CFE6FF010EE66EE3EC3F
:1016D0001EF0E552E5527ACFE6FF020EE66EE3EC2D
:1016E0001EF0E552E5527BCFE6FF040EE66EE3EC1A
:1016F0001EF0E552E5527CCFE6FF050EE66EE3EC08
:101700001EF0E552E5527DCFE6FF060EE66EE3ECF5
:081710001EF0E552E552120043
:08171800D9CFE6FFE1CFD9FFB4
:10172000040EE126DE6ADD6ADECF14F0DDCF15F0AF
:10173000166A176A15AE02D016681768D950FB0FE3
:10174000E96EFF0EDA20EA6EEE50145CEE5015588A
:10175000EE501658EE5017581DE2020EDB6A030ECB
:10176000DB6A020EDBCF14F0030EDBCF15F0D8904E
:10177000155004E6050E145C000E155806E2020E24
:10178000DB2A030EEEE3DB2AECD7DF2A010ECCE3E3
:10179000DB2ACAD7040EE15C02E2E16AE552E16E9F
:1017A000E552E7CFD9FF1200D9CFE6FFE1CFD9FF4D
:1017B000040EE126DE6ADD6ADECF14F0DDCF15F01F
:1017C000166A176A15AE02D016681768D950FB0F53
:1017D000E96EFF0EDA20EA6EEE50145CEE501558FA
:1017E000EE501658EE5017581DE2020EDB6A030E3B
:1017F000DB6A020EDBCF14F0030EDBCF15F0D890BE
:10180000155004E6EE0E145C000E155806E2020EAA
:10181000DB2A030EEEE3DB2AECD7DF2A010ECCE352
:10182000DB2ACAD7040EE15C02E2E16AE552E16E0E
:10183000E552E7CFD9FF1200D9CFE6FFE1CFD9FFBC
:101840000F0E8116FE0EDB50F00B81128186010E09
:10185000E66EE66AE66AE66AA7DFE552E552E55219
:10186000E5528196010EE66EE66AE66AE66A9CDF5C
:10187000E552E552E552E5520F0E8116FE0EDB38B9
:10188000F00B81128186010EE66EE66AE66AE66A70
:101890008BDFE552E552E552E5528196010EE66E88
:1018A000E66AE66AE66A80DFE552E552E552E5520D
:1018B000E552E7CFD9FF1200D9CFE6FFE1CFD9FF3C
:1018C000E652190EE66EE66AE66AE66A6DDFE552F2
:1018D000E552E552E5520F0E8116F80E81160F0EF5
:1018E0008116300E81128186010EE66EE66AE66A86
:1018F000E66A5ADFE552E552E552E5528196010E5D
:10190000E66EE66AE66AE66A4FDFE552E552E552C0
:10191000E5520F0E8116300E81128186010EE66EA1
:10192000E66AE66AE66A40DFE552E552E552E552CC
:101930008196010EE66EE66AE66AE66A35DFE552F2
:10194000E552E552E5520F0E8116300E8112818666
:10195000010EE66EE66AE66AE66A26DFE552E552C1
:10196000E552E5528196010EE66EE66AE66AE66A9F
:101970001BDFE552E552E552E5520F0E8116818AD2
:101980008186010EE66EE66AE66AE66A0DDFE552DA
:10199000E552E552E5528196010EE66EE66AE66A88
:1019A000E66A02DFE552E552E552E552280EE66EA0
:1019B00043DFE5520C0EE66E3FDFE552E552E5529D
:1019C000E7CFD9FF1200D9CFE6FFE1CFD9FF020E52
:1019D000E126DF6A010EDB6A81940F0EE66EE66A8D
:1019E000E66AE66A99DEE552E552E552E5520F0EE7
:1019F00081128186E66EE66AE66AE66A8DDEE55267
:101A0000E552E552E5520F0E8114E76E010EE7CF65
:101A1000DBFF81960F0EE66EE66AE66AE66A7CDE1A
:101A2000E552E552E552E5520F0E81128186E66ECF
:101A3000E66AE66AE66A70DEE552E552E552E5528C
:101A40000F0E8114DF6E010EDB50DF128196010E46
:101A5000E66EE66AE66AE66A5FDEE552E552E55260
:101A6000E552DF50146E020EE15C02E2E16AE552DB
:101A7000E16E1450E552E7CFD9FF1200D9CFE6FF4F
:101A8000E1CFD9FFE652DF6A9EDFDF6EDFBEFCD713
:101A9000DF50E552E552E7CFD9FF1200D9CFE6FF7C
:101AA000E1CFD9FF0F0E8116FE0EDB508112818629
:101AB000050EE66EE66AE66AE66A2EDEE552E55255
:101AC000E552E5528196050EE66EE66AE66AE66A3A
:101AD00023DEE552E552E552E552E552E7CFD9FF64
:101AE0001200D9CFE6FFE1CFD9FF8194050EE66E53
:101AF000E66AE66AE66A10DEE552E552E552E5522C
:101B0000FE0EDBCFE6FFCADFE552FE0EDB38F00B40
:101B1000E66EC4DFE552E552E7CFD9FF1200D9CF18
:101B2000E6FFE1CFD9FF8184050EE66EE66AE66A3C
:101B3000E66AF2DDE552E552E552E552FE0EDBCFF4
:101B4000E6FFACDFE552FE0EDB38F00BE66EA6DFFB
:101B5000E5528194E552E7CFD9FF1200D9CFE6FFD5
:101B6000E1CFD9FFFE0EDBCFE6FFD9DFE552E5522C
:101B7000E7CFD9FF1200D9CFE6FFE1CFD9FFFE0EA4
:101B8000DBCFE6FFCCDFE552E552E7CFD9FF12000D
:101B9000D9CFE6FFE1CFD9FFFD0EDBCFF6FFFE0E7A
:101BA000DBCFF7FF0800F5500FE0FD0EDBCFF6FFAF
:101BB000DB2AFE0EDBCFF7FF01E3DB2A0800F5503E
:101BC000E66ED9DFE552E8D7E552E7CFD9FF12003C
:101BD000D9CFE6FFE1CFD9FFE652FD0EDB500F0B68
:101BE000146EFE0EDB50010B400DF3501424DF6E1B
:101BF0007F0EDF14800FDF6EDFCFE6FF72DFE5526E
:101C0000E552E552E7CFD9FF1200010EE66E69DF1B
:101C1000E552E66AE66ADCDFE552E5521200D9CF0A
:101C2000E6FFE1CFD9FF050EE126010EF36EDB6E74
:101C3000020EDB6A030EDB6A040EDB6ADF6ADFCFAB
:101C400014F0156A14BE1568FB0EDBCF16F0FC0EFF
:101C5000DBCF17F015501718E8AE02D0173404D0B8
:101C60001650145C175015582DE2FD0EDBCF14F002
:101C7000FE0EDBCF15F0166A176A15AE02D0166895
:101C80001768D950010FE96EDACFEAFF14C00BF0E4
:101C900015C00CF016C00DF017C00EF0EECF06F018
:101CA000EECF07F0EECF08F0EFCF09F023EC21F0F4
:101CB00005C0EDFF04C0EDFF03C0EDFF02C0EFFF64
:101CC000DF2ABDD7010EDBCF14F0020EDBCF15F0FB
:101CD000030EDBCF16F0040EDBCF17F014C006F0B6
:101CE00015C007F016C008F017C009F0050EE15C3A
:101CF00002E2E16AE552E16EE552E7CFD9FF120058
:101D0000D9CFE6FFE1CFD9FF020EE126DF6AFB0E55
:101D1000DBCF14F0FC0EDBCF15F0FD0EDBCF16F0A1
:101D2000FE0EDBCF17F0145015101610171005E13A
:101D3000300EE66E20DFE552F4D0D950FB0FE96E8D
:101D4000FF0EDA20EA6ED890030EEB50000A08E688
:101D5000000EEE5C000EEE58000EEE58000EEE582F
:101D600015E22D0EE66E07DFE552D950FB0FE96E46
:101D7000FF0EDA20EA6E000EEE6CEF1EEE22EF1E72
:101D8000EE22EF1EEF22ED52ED52ED52DE52070E23
:101D9000DD6E010EDBCF14F0000EE76E1418E8AE16
:101DA00002D0143403D0E750D880145401E3B9D0E2
:101DB000010EDB04186E196A18BE196818C0E6FF18
:101DC00019C0E6FF0A0EE66EE66A29DFE552E55223
:101DD000E552E55206C014F007C015F008C016F031
:101DE00009C017F006C00BF007C00CF008C00DF0DA
:101DF00009C00EF0FB0EDBCF06F0FC0EDBCF07F0C8
:101E0000FD0EDBCF08F0FE0EDBCF09F082EC21F0F7
:101E1000065007100810091041E0010EDF6EDB04C8
:101E20001C6E1D6A1CBE1D681CC0E6FF1DC0E6FFBF
:101E30000A0EE66EE66AF3DEE552E552E552E55239
:101E400006C018F007C019F008C01AF009C01BF04E
:101E500006C00BF007C00CF008C00DF009C00EF072
:101E6000FB0EDBCF06F0FC0EDBCF07F0FD0EDBCF69
:101E700008F0FE0EDBCF09F082EC21F006C014F072
:101E800007C015F008C016F009C017F0300E142670
:101E9000000E152216221722145003D0DF5004E042
:101EA000300EE66E68DEE552010EDB04186E196A2C
:101EB00018BE196818C0E6FF19C0E6FF0A0EE66EE4
:101EC000E66AADDEE552E552E552E55206C014F091
:101ED00007C015F008C016F009C017F0D950FB0F65
:101EE000E96EFF0EDA20EA6E06C00BF007C00CF0B8
:101EF00008C00DF009C00EF0EECF06F0EECF07F0EF
:101F0000EECF08F0EFCF09F082EC21F005C0EDFF35
:101F100004C0EDFF03C0EDFF02C0EFFF010EDB06C2
:101F200038D7020EE15C02E2E16AE552E16EE55269
:101F3000E7CFD9FF1200D9CFE6FFE1CFD9FFFD0EE1
:101F4000DBCFE6FFFE0EDBCFE6FF42DEE552E552D9
:101F5000D950F90FE96EFF0EDA20EA6EEECFE6FFF8
:101F6000EECFE6FFEECFE6FFEFCFE6FFC9DEE552AC
:101F7000E552E552E552E552E7CFD9FF1200D9CF3D
:101F8000E6FFE1CFD9FFFD0EDBCFE6FFFE0EDBCF94
:101F9000E6FF1EDEE552E552FB0EDBCFE6FFFC0E50
:101FA000DBCFE6FFF5DDE552E552E552E7CFD9FF9D
:101FB0001200D9CFE6FFE1CFD9FF25C114F026C129
:101FC00015F0040ED89014361536E806FBE1C10E64
:101FD0001426000E1522145001012725E96E155014
:101FE0002821EA6EFE0EDBCFEFFF272B000E282301
:101FF000E552E7CFD9FF1200D9CFE6FFE1CFD9FFF5
:10200000E652DF6ADFCF14F0100EE76E1418E8AE68
:1020100002D0E73402D0E750145C18E2DFCFE9FFCA
:10202000EA6AE9BEEA68C10EE926000EEA22200E3D
:10203000EF6EDFCFE9FFEA6AE9BEEA68D10EE92672
:10204000000EEA22200EEF6EDF2ADCD7E552E552C1
:10205000E7CFD9FF1200D9CFE6FFE1CFD9FFE65293
:102060000001C051030A52E0010A36E0030A1AE0F7
:10207000010A67E1E66AE66AABDDE552E552DF6A2E
:10208000080EDF5C0CE2DF50EA6AC10FE96E000E59
:10209000EA22EF50E66E6FDDE552DF2AF1D700014C
:1020A000010E32D0080EE66EE66A92DDE552E55288
:1020B000DF6A080EDF5C0DE2080EDF24EA6AC10F5A
:1020C000E96E000EEA22EF50E66E55DDE552DF2A9A
:1020D000F0D70001020E18D0E66A010EE66E78DD38
:1020E000E552E552DF6A080EDF5C0CE2DF50EA6A77
:1020F000D10FE96E000EEA22EF50E66E3CDDE552AC
:10210000DF2AF1D70001030EC06F1CD0080EE66E67
:10211000010EE66E5DDDE552E552DF6A080EDF5C1A
:102120000DE2080EDF24EA6AD10FE96E000EEA2202
:10213000EF50E66E20DDE552DF2AF0D70001C06BDC
:1021400001D0C06BE552E552E7CFD9FF1200D9CFDD
:10215000E6FFE1CFD9FFE6520001C051010A1BE0C2
:10216000010A32E1E66AE66A33DDE552E552DF6AEA
:10217000100EDF5C0CE2DF50EA6AC10FE96E000E60
:10218000EA22EF50E66EF7DCE552DF2AF1D70001D4
:10219000010EC06F1AD0E66A010EE66E19DDE55237
:1021A000E552DF6A100EDF5C0CE2DF50EA6AD10F05
:1021B000E96E000EEA22EF50E66EDDDCE552DF2A22
:1021C000F1D70001C06B01D0C06BE552E552E7CFFB
:1021D000D9FF1200D9CFE6FFE1CFD9FFE652E66A78
:1021E000E66AF6DCE552E552DF6A100EDF5C0CE2CF
:1021F000DF50EA6AC10FE96E000EEA22EF50E66E88
:10220000BADCE552DF2AF1D7E66A010EE66EE0DCC1
:10221000E552E552DF6A100EDF5C0CE2DF50EA6A3D
:10222000D10FE96E000EEA22EF50E66EA4DCE55213
:10223000DF2AF1D7E552E552E7CFD9FF1200D9CF17
:10224000E6FFE1CFD9FFFE0EDB50010B0101256F48
:10225000266BFD0EDB500F0B276F286B25C114F08A
:1022600026C115F0040ED89014361536E806FBE1A9
:10227000C10E1426000E1522145001012725E96E07
:1022800015502821EA6EFC0EDBCFEFFFE552E7CFB9
:10229000D9FF1200D9CFE6FFE1CFD9FF020EE12628
:1022A000DF6AFE0EDB50010B0101256F266BFD0E70
:1022B000DB500F0B276F286BF90EDBCF14F0FA0EF3
:1022C000DBCF15F0FB0EDBCF16F0FC0EDBCF17F0EB
:1022D000145015101610171005E1300EE66E69DE69
:1022E000E552F5D0D950F90FE96EFF0EDA20EA6E0B
:1022F000D890030EEB50000A08E6000EEE5C000ECC
:10230000EE58000EEE58000EEE5815E22D0EE66E59
:1023100050DEE552D950F90FE96EFF0EDA20EA6E71
:10232000000EEE6CEF1EEE22EF1EEE22EF1EEF22ED
:10233000ED52ED52ED52DE52070EDD6E010EDBCF97
:1023400014F0000EE76E1418E8AE02D0143403D077
:10235000E750D880145401E3BAD0010EDB04186EA4
:10236000196A18BE196818C0E6FF19C0E6FF0A0E00
:10237000E66EE66A54DCE552E552E552E55206C0E7
:1023800014F007C015F008C016F009C017F006C019
:102390000BF007C00CF008C00DF009C00EF0F90EEC
:1023A000DBCF06F0FA0EDBCF07F0FB0EDBCF08F039
:1023B000FC0EDBCF09F082EC21F00650071008106C
:1023C000091041E0010EDF6EDB041C6E1D6A1CBEAD
:1023D0001D681CC0E6FF1DC0E6FF0A0EE66EE66A39
:1023E0001EDCE552E552E552E55206C018F007C082
:1023F00019F008C01AF009C01BF006C00BF007C0A6
:102400000CF008C00DF009C00EF0F90EDBCF06F09D
:10241000FA0EDBCF07F0FB0EDBCF08F0FC0EDBCFB4
:1024200009F082EC21F006C014F007C015F008C0D6
:1024300016F009C017F0300E1426000E15221622D1
:102440001722145003D0DF5004E0300EE66EB1DDE9
:10245000E552010EDB04186E196A18BE196818C01F
:10246000E6FF19C0E6FF0A0EE66EE66A0FEC0EF014
:10247000E552E552E552E55206C014F007C015F0EA
:1024800008C016F009C017F0D950F90FE96EFF0E19
:10249000DA20EA6E06C00BF007C00CF008C00DF0A1
:1024A00009C00EF0EECF06F0EECF07F0EECF08F049
:1024B000EFCF09F082EC21F005C0EDFF04C0EDFF85
:1024C00003C0EDFF02C0EFFF010EDB0637D7020E9F
:1024D000E15C02E2E16AE552E16EE552E7CFD9FF45
:1024E0001200D9CFE6FFE1CFD9FFFE0EDB50010B82
:1024F0000101256F266BFD0EDB500F0B276F286B3C
:10250000FB0EDBCFF6FFFC0EDBCFF7FF0800F5502C
:102510000FE0FB0EDBCFF6FFDB2AFC0EDBCFF7FF75
:1025200001E3DB2A0800F550E66E43DDE552E8D70B
:10253000E552E7CFD9FF1200D9CFE6FFE1CFD9FFAF
:10254000050EE126D9CFE9FFDACFEAFFF90EDBCF9E
:10255000EEFFFA0EDBCFEEFFFB0EDBCFEEFFFC0E45
:10256000DBCFEEFFD9CFE9FFDACFEAFFD890030E39
:10257000EB50000A08E60A0EEE5C000EEE58000E64
:10258000EE58000EEE5810E3D9CFE9FFDACFEAFF9C
:10259000EECFE6FFEECFE6FFEECFE6FFEFCFE6FFB2
:1025A000FD0EDBCFE6FF1ED0E66AE66AE66AE66A63
:1025B000FD0EDBCFE6FFFE0EDBCFE6FF6BDE146E1B
:1025C000060EE15E1450D9CFE9FFDACFEAFFEECF75
:1025D000E6FFEECFE6FFEECFE6FFEFCFE6FFFD0E24
:1025E000DB28E66EFE0EDBCFE6FF54DE146E060E31
:1025F000E15E1450050EE15C02E2E16AE552E16E33
:08260000E552E7CFD9FF1200FB
:08260800D9CFE6FFE1CFD9FFB5
:10261000D59EFD0EDBCF48FFFE0EDBCF49FFD59CDC
:1026200017681868196A48CF1AF049CF1BF01C6A5E
:102630001A50175C146E1B501858156E1C50195800
:10264000166E0C6A010E0D6E0E6A14C007F015C0EE
:1026500008F016C009F06BEC17F00350D66E17683F
:102660001868196A48CF1AF049CF1BF01C6A1A5033
:10267000175C146E1B501858156E1C501958166EA6
:102680000C6A010E0D6E0E6A14C007F015C008F03A
:1026900016C009F06BEC17F007C014F008C015F075
:1026A00009C016F00750D76ED59AD586F28AF294F3
:1026B000F184D58EE552E7CFD9FF1200D59E1200E6
:1026C00017681868196A48CF1AF049CF1BF01C6ABE
:1026D0001A50175C146E1B501858156E1C50195860
:1026E000166E0C6A010E0D6E0E6A14C007F015C04E
:1026F00008F016C009F06BEC17F00350D66E17689F
:102700001868196A48CF1AF049CF1BF01C6A1A5092
:10271000175C146E1B501858156E1C501958166E05
:102720000C6A010E0D6E0E6A14C007F015C008F099
:1027300016C009F06BEC17F007C014F008C015F0D4
:1027400009C016F00750D76ED58E1200D9CFE6FF1C
:10275000E1CFD9FFCD90FD0EDBCF4AFFFE0EDBCFE0
:102760004BFF17681868196A4ACF1AF04BCF1BF055
:102770001C6A1A50175C146E1B501858156E1C50AA
:102780001958166E0C6A010E0D6E0E6A14C007F011
:1027900015C008F016C009F06BEC17F00750CF6EAB
:1027A00017681868196A4ACF1AF04BCF1BF01C6AD9
:1027B0001A50175C146E1B501858156E1C5019587F
:1027C000166E0C6A010E0D6E0E6A14C007F015C06D
:1027D00008F016C009F06BEC17F003C014F004C049
:1027E00015F005C016F00350CE6E9D809E909F9010
:1027F000CD8ECD8CCD98CD9ACD96CD92CD80E55213
:10280000E7CFD9FF120017681868196A4ACF1AF083
:102810004BCF1BF01C6A1A50175C146E1B501858D3
:10282000156E1C501958166E0C6A010E0D6E0E6A4C
:1028300014C007F015C008F016C009F06BEC17F0D3
:102840000750CF6E17681868196A4ACF1AF04BCF35
:102850001BF01C6A1A50175C146E1B501858156E2A
:102860001C501958166E0C6A010E0D6E0E6A14C0BB
:1028700007F015C008F016C009F06BEC17F003C0A4
:1028800014F004C015F005C016F00350CE6ECD80D4
:102890001200CD901200D9CFE6FFE1CFD9FFCA9444
:1028A000CC6AFE0EDB500F014C6F4D6BCB6E9D82E0
:1028B0009E929F92CA90CA92CA84E552E7CFD9FFEE
:1028C00012004CCFCBFFCA841200CA941200D9CF99
:1028D000E6FFE1CFD9FFB190FD0EDBCF4EFFFE0E3C
:1028E000DBCF4FFF17681868196A4ECF1AF04FCF29
:1028F0001BF01C6A1A50175C146E1B501858156E8A
:102900001C501958166E0C6A010E0D6E0E6A14C01A
:1029100007F015C008F016C009F06BEC17F007506F
:10292000B36E17681868196A4ECF1AF04FCF1BF0B4
:102930001C6A1A50175C146E1B501858156E1C50E8
:102940001958166E0C6A010E0D6E0E6A14C007F04F
:1029500015C008F016C009F06BEC17F003C014F0B6
:1029600004C015F005C016F00350B26EA082A1920B
:10297000A292B18EB198B19AB192B180E552E7CFEF
:10298000D9FF120017681868196A4ECF1AF04FCF96
:102990001BF01C6A1A50175C146E1B501858156EE9
:1029A0001C501958166E0C6A010E0D6E0E6A14C07A
:1029B00007F015C008F016C009F06BEC17F00350D3
:1029C000B26E17681868196A4ECF1AF04FCF1BF015
:1029D0001C6A1A50175C146E1B501858156E1C5048
:1029E0001958166E0C6A010E0D6E0E6A14C007F0AF
:1029F00015C008F016C009F06BEC17F007C014F012
:102A000008C015F009C016F00750B36EB18012006F
:102A1000B19012000F01582B000E59236051585DE0
:102A20006151595904E3586B596B010E506F610E97
:102A3000AE5C02E181908192620EAE5C02E1818027
:102A40008192630EAE5C02E181908182640EAE5C85
:102A500002E18180818212000F015A2B000E5B235C
:102A600062515A5D63515B5904E35A6B5B6B010E13
:102A7000516F6D0EAE5C01E0ACD028CF08F029CFCD
:102A800009F056EC16F007C018F008C019F009C09C
:102A90001AF00AC01BF00A0E0C6ED70E0D6E230E34
:102AA0000E6E410E0F6E6BEC16F007C014F008C0EE
:102AB00015F009C016F00AC017F00C6A0D6AA00ED6
:102AC0000E6E420E0F6E32EC18F0010A01E1819099
:102AD00028CF08F029CF09F056EC16F007C018F0FF
:102AE00008C019F009C01AF00AC01BF00A0E0C6EDB
:102AF000D70E0D6E230E0E6E410E0F6E6BEC16F0A0
:102B000007C014F008C015F009C016F00AC017F08D
:102B10000C6A0D6A8C0E0E6E420E0F6E3BEC18F0B6
:102B2000010A01E181802ACF08F02BCF09F056EC91
:102B300016F007C018F008C019F009C01AF00AC052
:102B40001BF00A0E0C6ED70E0D6E230E0E6E410E8C
:102B50000F6E6BEC16F007C014F008C015F009C03A
:102B600016F00AC017F00C6A0D6AA00E0E6E420E27
:102B70000F6E32EC18F0010A01E181922ACF08F0C1
:102B80002BCF09F056EC16F007C018F008C019F06A
:102B900009C01AF00AC01BF00A0E0C6ED70E0D6E9B
:102BA000230E0E6E410E0F6E6BEC16F007C014F084
:102BB00008C015F009C016F00AC017F00C6A0D6ABB
:102BC0008C0E0E6E420E0F6E3BEC18F0010A01E106
:102BD000818212000F015C2B000E5D2364515C5D4D
:102BE00065515D5904E35C6B5D6B010E526F120021
:102BF0000F015E2B000E5F2366515E5D67515F59CA
:102C000004E35E6B5F6B010E536F1200D9CFE6FFDA
:102C1000E1CFD9FFFD0EDBCF60FFFE0EDBCF61FF02
:102C20000F01586B596B506BE552E7CFD9FF12007B
:102C3000D9CFE6FFE1CFD9FFFD0EDBCF62FFFE0E5D
:102C4000DBCF63FF050E0D6E0E6A62CF08F063CF17
:102C500009F045EC17F008C062FF09C063FF0F01DF
:102C60005A6B5B6B516BE552E7CFD9FF1200D9CF9E
:102C7000E6FFE1CFD9FFFD0EDBCF66FFFE0EDBCF17
:102C800067FF0A0E0D6E0E6A66CF08F067CF09F077
:102C900045EC17F008C066FF09C067FF0F015E6BC7
:0C2CA0005F6B536BE552E7CFD9FF1200C9
:042CAC00019E08D0AD
:102CB000019E09AE05D0086C091EE86A0922018E42
:102CC00009C003F008C002F0136A126A8E0E046E87
:102CD000056AB5EF18F0016AF1EC18F009EC19F08B
:102CE00001B699EF18F001A205D001BA99EF18F0DA
:102CF000A0EF18F001BAACEF18F001A005D001B8B0
:102D000099EF18F0ACEF18F001B8A0EF18F0056AD1
:102D10007F0E0A24046EE86A05220F50045EE86AFA
:102D2000055A1A0E106E0A6A126A136A026A036A58
:102D30000C50075E0D50085A0E50095A000E0A5AE0
:102D400009E70C5007260D5008220E500922000EEC
:102D50000A2201D0128AD8900736083609360A3678
:102D6000D8901236133602360336102EE1D70950AA
:102D700008100710D8A4128AB5EF18F0016AF1EC18
:102D800018F009EC19F001B699EF18F001A205D07E
:102D900001B899EF18F0A0EF18F001AA05D001B022
:102DA00099EF18F0A0EF18F001B002D001A802D0FE
:102DB000ACEF18F0056A0F500A24046EE86A052289
:102DC0007E0E045EE86A055A126A136A026A036A92
:102DD0000E500902F4CF03F0F3CF02F00D500902B8
:102DE000F3501326F4500222000E03220E50080264
:102DF000F3501326F4500222000E03220C50090255
:102E0000F3501226F4501322000E022203220D501A
:102E10000802F3501226F4501322000E022203225D
:102E20000E500702F3501226F4501322000E022215
:102E300003220C500802F4501226000E1322022224
:102E400003220D500702F4501226000E1322022214
:102E50000322B5EF18F0006A0EAE31EF17F00E6CDA
:102E6000001E09AE36EF17F0096C001EF7EC21F0DA
:102E700009BE40EF17F000AE000C096C056C000CA9
:102E800000BE3DEF17F00188FF0C006A0EAE4EEF5A
:102E900017F00D6C0E1EE86A0E22001E09AE56EFEA
:102EA00017F0086C091EE86A0922001EC3EC21F025
:102EB00009BE66EF17F000AE000C086C091EE86A48
:102EC0000922046C051EE86A0522000C00BE5DEFB5
:102ED00017F00188FF0C006A0EAE76EF17F00C6C4D
:102EE0000D1E0E1EE86A0D220E22001E09AE80EF96
:102EF00017F0076C081E091EE86A08220922001E46
:102F0000A6EC21F009BE93EF17F000AE000C076CA1
:102F1000081E091EE86A08220922036C041E051E09
:102F200004220522000C00BE87EF17F00188FF0C79
:102F3000006AE86A0EAEA5EF17F00B6C0C1E0D1EB2
:102F40000E1E0C220D220E22001E09AEB0EF17F04D
:102F5000066C071E081E091E072208220922001EF1
:102F600082EC21F009BEC7EF17F000AE000C066C32
:102F7000071E081E091EE86A072208220922026CA1
:102F8000031E041E051E032204220522000C00BE9F
:102F9000B7EF17F00188FF0C016AF1EC18F001B6E9
:102FA000D6EF17F001A20ED001B405D07F0E096E46
:102FB000FF0E086E1FD0800E096E086A1BD0096ACA
:102FC000086A18D001B0FBD78F0E0A60EDD77E0ECD
:102FD0000A64F5D78E0E0A5C05E0D89009320832F3
:102FE0000A2AF8D701A406D0086C091EE86A09224B
:102FF00009AEE5D71200016AF1EC18F001B605EF51
:1030000018F001A20FD001B407D07F0E096EFF0E99
:10301000086E076E066E25D0800E096E01D0096A13
:10302000000EF6D701B0FBD7066A9F0E0A60EBD7F9
:103030007E0E0A64F4D79E0E0A5C07E0D89009322F
:103040000832073206320A2AF6D701A40AD0066CE3
:10305000071E081E091EE86A07220822092209AE77
:10306000DED7120044EC18F001B6000C01B0000CE1
:1030700001B4000C010C44EC18F001B6000C01B0D6
:10308000000C01A4000C010C016AF1EC18F009EC31
:1030900019F001B6120001AE08D001A004D001A8B9
:1030A00002D001801200019012000F500A5C0BE167
:1030B0000E50095C08E10D50085C05E10C50075CFE
:1030C00002E101801200D8A002D0018E10D00A5077
:1030D0000FC00AF00F6E09500EC009F00E6E0850B6
:1030E0000DC008F00D6E07500CC007F00C6E0F50AD
:1030F0000A5C10E0FF0F09E0019001B403D001AEBB
:103100000184120001AE019412000F2AD8900E32F1
:103110000D320C320C50075E0D50085A0E50095AF1
:1031200009BEEAD7D8900736083609360A2EF8D7EE
:10313000C8D77F0E0A6EFF0E096E086E076E12006A
:103140007F0E01BEFF0E0A6E02D07F0E0A6E800E49
:10315000096E086A076AF3D701AE04D0800E0A6EC2
:10316000096AF7D70A6A096AF4D7035002101310E4
:103170001210F8E005BEF0D703BE0CD004500510C5
:10318000EBE0D89012361336023603360406D8A088
:103190000506F2D70550D4E10428D2E012AE11D0D2
:1031A0007F0E121402E113A00CD0132AE86A022247
:1031B000032207E3D880033202321332042A0428A0
:1031C000BFE00450C9E013C007F002C008F00334A8
:1031D000096E04300A6E09320A9E01BE0A8E9FEF04
:1031E00018F009360A3602E30184017E06E1018007
:1031F0000A6A096A086A076A12000A2803E0D88086
:1032000009321200D890093202E1018212000186CF
:1032100012000E360F3602E3018C017E06E10188B2
:103220000F6A0E6A0D6A0C6A12000F2803E0D8803C
:0E3230000E321200D8900E32EAE1018A12002E
:02323E00B06A74
:10324000810EAF6EAC8AAC94B886AC98AB8EAB886E
:103250009E9A9D8A9F9A949C948E1200D9CFE6FFE5
:10326000E1CFD9FF040EE126DE6ADD6ADECF14F07D
:10327000DDCF15F0FD0EDBCF16F0FE0EDBCF17F025
:1032800015501718E8AE02D0173404D01650145C4D
:10329000175015581DE2020EDB6A030EDB6A020EA0
:1032A000DBCF14F0030EDBCF15F0D890155004E6F9
:1032B000EE0E145C000E155806E2020EDB2A030E19
:1032C000EEE3DB2AECD7DF2A010ED0E3DB2ACED7F0
:1032D000040EE15C02E2E16AE552E16EE552E7CFFD
:1032E000D9FF1200D9CFE6FFE1CFD9FF9EA8FED7C4
:1032F000FE0EDB50AD6E9E98E552E7CFD9FF12006F
:10330000D9CFE6FFE1CFD9FFFD0EDBCFE9FFFE0EFF
:10331000DBCFEAFFEF5010E0FD0EDBCFE9FFFE0E42
:10332000DBCFEAFFEF50E66EDDDFE552FD0EDB2A74
:10333000FE0EEAE3DB2AE8D7E552E7CFD9FF120019
:10334000D9CFE6FFE1CFD9FFFD0EDBCFF6FFFE0EB2
:10335000DBCFF7FF0800F55015E0FD0EDBCFF6FFE1
:10336000FE0EDBCFF7FF0800F550E66EBBDFE5523F
:10337000FD0EDBCFF6FFDB2AFE0EDBCFF7FFE4E32B
:10338000DB2AE2D7E552E7CFD9FF1200D9CFE6FF1B
:10339000E1CFD9FF050EE126010EF36EDB6E020EC2
:1033A000DB6A030EDB6A040EDB6ADF6ADFCF14F030
:1033B000156A14BE1568FB0EDBCF16F0FC0EDBCFD2
:1033C00017F015501718E8AE02D0173404D0165075
:1033D000145C175015582DE2FD0EDBCF14F0FE0ED5
:1033E000DBCF15F0166A176A15AE02D0166817689B
:1033F000D950010FE96EDACFEAFF14C00BF015C007
:103400000CF016C00DF017C00EF0EECF06F0EECFA8
:1034100007F0EECF08F0EFCF09F023EC21F005C064
:10342000EDFF04C0EDFF03C0EDFF02C0EFFFDF2A98
:10343000BDD7010EDBCF14F0020EDBCF15F0030E6B
:10344000DBCF16F0040EDBCF17F014C006F015C06A
:1034500007F016C008F017C009F0050EE15C02E2A3
:10346000E16AE552E16EE552E7CFD9FF1200D9CF0C
:10347000E6FFE1CFD9FF020EE126DF6AFB0EDBCFCC
:1034800014F0FC0EDBCF15F0FD0EDBCF16F0FE0EB8
:10349000DBCF17F0145015101610171005E1300E81
:1034A000E66E20DFE552F4D0D950FB0FE96EFF0E37
:1034B000DA20EA6ED890030EEB50000A08E6000E00
:1034C000EE5C000EEE58000EEE58000EEE5815E2BF
:1034D0002D0EE66E07DFE552D950FB0FE96EFF0EA9
:1034E000DA20EA6E000EEE6CEF1EEE22EF1EEE22E8
:1034F000EF1EEF22ED52ED52ED52DE520A0EDD6E5E
:10350000010EDBCF14F0000EE76E1418E8AE02D007
:10351000143403D0E750D880145401E3B9D0010E1D
:10352000DB04186E196A18BE196818C0E6FF19C0C6
:10353000E6FF0A0EE66EE66A29DFE552E552E5523D
:10354000E55206C014F007C015F008C016F009C017
:1035500017F006C00BF007C00CF008C00DF009C052
:103560000EF0FB0EDBCF06F0FC0EDBCF07F0FD0EFE
:10357000DBCF08F0FE0EDBCF09F082EC21F0065025
:1035800007100810091041E0010EDF6EDB041C6E0D
:103590001D6A1CBE1D681CC0E6FF1DC0E6FF0A0EAA
:1035A000E66EE66AF3DEE552E552E552E55206C004
:1035B00018F007C019F008C01AF009C01BF006C0C7
:1035C0000BF007C00CF008C00DF009C00EF0FB0EA8
:1035D000DBCF06F0FC0EDBCF07F0FD0EDBCF08F0F3
:1035E000FE0EDBCF09F082EC21F006C014F007C01C
:1035F00015F008C016F009C017F0300E1426000EA2
:10360000152216221722145003D0DF5004E0300E8A
:10361000E66E68DEE552010EDB04186E196A18BE0C
:10362000196818C0E6FF19C0E6FF0A0EE66EE66AE2
:10363000ADDEE552E552E552E55206C014F007C092
:1036400015F008C016F009C017F0D950FB0FE96E4D
:10365000FF0EDA20EA6E06C00BF007C00CF008C0BF
:103660000DF009C00EF0EECF06F0EECF07F0EECF72
:1036700008F0EFCF09F082EC21F005C0EDFF04C0A7
:10368000EDFF03C0EDFF02C0EFFF010EDB0638D7F0
:10369000020EE15C02E2E16AE552E16EE552E7CF3B
:1036A000D9FF1200D9CFE6FFE1CFD9FFFD0EDBCF66
:1036B00014F0FE0EDBCF15F0640E0D6E0E6A14C012
:1036C00008F015C009F045EC17F008C014F009C067
:1036D00015F0166A176A15AE02D01668176814C07E
:1036E000E6FF15C0E6FF16C0E6FF17C0E6FFBFDE27
:1036F000E552E552E552E5522E0EE66EF3DDE55257
:10370000FD0EDBCF14F0FE0EDBCF15F0640E0D6E58
:103710000E6A14C008F015C009F045EC17F004C09B
:1037200014F005C015F0166A176A15AE02D01668B7
:10373000176814C0E6FF15C0E6FF16C0E6FF17C005
:10374000E6FF95DEE552E552E552E552E552E7CF58
:10375000D9FF1200D9CFE6FFE1CFD9FFE652AE5034
:10376000DF6EDFCFE6FF0F0EE66E010EE66E1FEC9A
:1037700011F0E552E552E552E552E552E7CFD9FFA7
:02378000120035
:0E3782000F0E946E82681200CF0E9414946E97
:1037900082681200D9CFE6FFE1CFD9FF040EE126FF
:1037A000DE6ADD6ADECF14F0DDCF15F0D89015505B
:1037B00004E6040E145C000E155801E390D0DECF31
:1037C000E9FFDDCFEAFF200EE9260F0EEA22EF1C0B
:1037D000826E020EDB6A030EDB6A020EDBCF14F090
:1037E000030EDBCF15F0D890155004E6040E145CE0
:1037F000000E15586EE2020EDBCFE9FF030EDBCFA1
:10380000EAFF240EE9260F0EEA22EF5082143FE170
:10381000DECF18F0DDCF19F0D89018361936D890D1
:1038200018361936020EDB501824E96E030EDB50F1
:103830001920EA6ED890E936EA36000EE9260F0E16
:10384000EA22EECF16F0EFCF17F0010E1626000E8B
:103850001722DECF14F0DDCF15F0D89014361536D0
:10386000D89014361536020EDB501424E96E030E80
:10387000DB501520EA6ED890E936EA36000EE926CC
:103880000F0EEA2216C0EEFF17C0EDFF1BD0DECFF1
:1038900014F0DDCF15F0D89014361536D8901436C4
:1038A0001536020EDB501424E96E030EDB50152092
:1038B000EA6ED890E936EA36000EE9260F0EEA22C3
:1038C000EE6AED6A020EDB2A030E01E286D7DB2ADE
:1038D00084D7DF2A010E01E265D7DB2A63D7040E05
:1038E000E15C02E2E16AE552E16EE552E7CFD9FF21
:1038F0001200D9CFE6FFE1CFD9FF040EE126DE6A40
:10390000DD6ADECF14F0DDCF15F0D890155004E657
:10391000020E145C000E155801E394D0DECFE9FFCF
:10392000DDCFEAFF200EE9260F0EEA22EF1C8214FB
:10393000826E0F0E8210826E020EDB6A030EDB6A4D
:10394000020EDBCF14F0030EDBCF15F0D89015502C
:1039500004E6040E145C000E15586EE2020EDBCF76
:10396000E9FF030EDBCFEAFF240EE9260F0EEA2261
:10397000EF5082143FE1DECF18F0DDCF19F0D89080
:1039800018361936D89018361936020EDB5018241E
:10399000E96E030EDB501920EA6ED890E936EA365C
:1039A000000EE9260F0EEA22EECF16F0EFCF17F049
:1039B000010E1626000E1722DECF14F0DDCF15F013
:1039C000D89014361536D89014361536020EDB50C2
:1039D0001424E96E030EDB501520EA6ED890E93608
:1039E000EA36000EE9260F0EEA2216C0EEFF17C0D7
:1039F000EDFF1BD0DECF14F0DDCF15F0D8901436DC
:103A00001536D89014361536020EDB501424E96EA4
:103A1000030EDB501520EA6ED890E936EA36000E28
:103A2000E9260F0EEA22EE6AED6A020EDB2A030E89
:103A300001E286D7DB2A84D7DF2A010E01E261D7B3
:103A4000DB2A5FD7040EE15C02E2E16AE552E16E37
:103A5000E552E7CFD9FF1200D9CFE6FFE1CFD9FF7A
:103A6000040EE126DE6ADD6ADECF14F0DDCF15F04C
:103A7000FD0EDBCF16F0FE0EDBCF17F0155017183A
:103A8000E8AE02D0173404D01650145C1750155805
:103A90001DE2020EDB6A030EDB6A020EDBCF14F0BE
:103AA000030EDBCF15F0D890155004E6EE0E145C33
:103AB000000E155806E2020EDB2A030EEEE3DB2AA7
:103AC000ECD7DF2A010ED0E3DB2ACED7040EE15C6F
:103AD00002E2E16AE552E16EE552E7CFD9FF12005A
:103AE000D9CFE6FFE1CFD9FF040EE126DE6ADD6A19
:103AF000DECF14F0DDCF15F0D890155004E6040E9B
:103B0000145C000E155875E2DECFE9FFDDCFEAFF49
:103B1000200EE9260F0EEA22EF1C826E020EDB6AEF
:103B2000030EDB6A020EDBCF14F0030EDBCF15F0C1
:103B3000D890155004E6040E145C000E15584AE2A5
:103B4000DECF14F0DDCF15F0D89014361536D890AE
:103B500014361536020EDB501424E96E030EDB50CA
:103B60001520EA6ED890E936EA36000EE9260F0EE7
:103B7000EA22EE6AED6A020EDBCFE9FF030EDBCF2D
:103B8000EAFF240EE9260F0EEA22EF5082141CE110
:103B9000DECF14F0DDCF15F0D89014361536D8905E
:103BA00014361536020EDB501424E96E030EDB507A
:103BB0001520EA6ED890E936EA36000EE9260F0E97
:103BC000EA22010EEE6EED6A020EDB2A030EAAE374
:103BD000DB2AA8D78250816EE80EE66E030EE66EF1
:103BE0003BDFE552E552DF2A010E01E281D7DB2AF5
:103BF0007FD7040EE15C02E2E16AE552E16EE55234
:063C0000E7CFD9FF12001E
:0A3C0600D9CFE6FFE1CFD9FF020E8F
:103C1000E126FE0EDB500F0BDF6EFE0EDB380F0BC6
:103C20000A0D010EF3CFDBFFDB50DF24146E020E12
:103C3000E15C02E2E16AE552E16E1450E552E7CF41
:103C4000D9FF1200D9CFE6FFE1CFD9FF020EE1265E
:103C50000A0E146E0E6EFE0EDBCF09F0F7EC21F0AB
:103C60000550DF6E0A0E146E0E6EFE0EDBCF09F0ED
:103C7000F7EC21F00950100D010EF3CFDBFFDB5004
:103C8000DF24146E020EE15C02E2E16AE552E16EAD
:103C90001450E552E7CFD9FF120094969498120081
:103CA000D9CFE6FFE1CFD9FFE652DF6AFE0EDB5047
:103CB000DF5C02E2DF2AFAD7E552E552E7CFD9FF0F
:103CC000120082A8000C010C0001FC5102E0828865
:103CD000828682988296010EFC6F120082988286FC
:103CE00082880001FC6B1200D9CFE6FFE1CFD9FF3B
:103CF000020EE126DF6ADFCF14F0080EE76E14181B
:103D0000E8AE02D0E73402D0E750145C0FE2FE0EBA
:103D1000DBBE02D0829801D0828882868296DB50F8
:103D2000020DFE0EF3CFDBFFDF2AE5D794888286F3
:103D3000C8DFE76E010EE7CFDBFF82969498DB5079
:103D4000146E020EE15C02E2E16AE552E16E14508B
:103D5000E552E7CFD9FF1200D9CFE6FFE1CFD9FF77
:103D6000020EE126DF6A9488010EDB6ADBCF14F0D5
:103D7000080EE76E1418E8AE02D0E73402D0E75020
:103D8000145C0BE282869DDF146EDF50E824141071
:103D9000DF6E8296010EDB2AE9D79498FE0EDB5087
:103DA00002E0828801D0829882868296DF50146E6B
:103DB000020EE15C02E2E16AE552E16E1450E55266
:103DC000E7CFD9FF1200D9CFE6FFE1CFD9FF7CDFE3
:103DD000D00EE66E89DFE552FE0EDBCFE6FF84DF14
:103DE000E552FD0EDBCFE6FF2DDFE552E66E7CDF10
:103DF000E55274DFE552E7CFD9FF1200D9CFE6FFD5
:103E0000E1CFD9FFE65260DFD00EE66E6DDFE552FE
:103E1000FE0EDBCFE6FF68DFE55256DFD10EE66E21
:103E200063DFE552010EE66E97DFE552DF6EDFCF0E
:103E3000E6FFE9DEE552DF6E51DFDF50E552E55285
:103E4000E7CFD9FF1200D9CFE6FFE1CFD9FFFD0EB2
:103E5000DBCFE6FFFE0EDBCFE6FFB5DFE552E55236
:103E6000E552E7CFD9FF1200D9CFE6FFE1CFD9FF66
:103E7000FE0EDBCFE6FFC2DFE552E552E7CFD9FF0A
:023E800012002E
:0E3E8200F28ED08EF28C1200F19CF292F28839
:103E90001200D8CFE4FFE0CFE4FFE46EDACFE4FF16
:103EA000E2CFDAFFE9CFE4FFEACFE4FFF6CFE4FFA9
:103EB000F7CFE4FFF5CFE4FFF3CFE4FFF4CFE4FF67
:103EC000FACFE4FF00EE00F0140EE80403E3EECFB7
:103ED000E4FFFBD700EE14F00A0EE80403E3EECF94
:103EE000E4FFFBD7E652F2A407D05EEC13F0F294A5
:103EF00060EC13F00AEC15F09EA007D049EC14F02A
:103F00009E9003EC14F02CEC15F0A1A207D008EC65
:103F100015F0A192C2EC14F0F8EC15F0F2B2F292A6
:103F20009EAA03D09E9AAAEC1BF0E55200EE1DF06B
:103F30000A0EE80403E3E5CFEDFFFBD700EE13F034
:103F4000140EE80403E3E5CFEDFFFBD7E5CFFAFF5E
:103F5000E5CFF4FFE5CFF3FFE5CFF5FFE5CFF7FFC2
:103F6000E5CFF6FFE5CFEAFFE5CFE9FFE5CFDAFFE2
:103F7000E550E5CFE0FFE5CFD8FF1000DACFE4FF52
:103F8000E2CFDAFFE9CFE4FFEACFE4FFF6CFE4FFC8
:103F9000F7CFE4FFF5CFE4FFF3CFE4FFF4CFE4FF86
:103FA000FACFE4FF00EE00F0140EE80403E3EECFD6
:103FB000E4FFFBD700EE14F00A0EE80403E3EECFB3
:103FC000E4FFFBD7E652F2A407D05EEC13F0F294C4
:103FD00060EC13F00AEC15F09EA007D049EC14F049
:103FE0009E9003EC14F02CEC15F0A1A207D008EC85
:103FF00015F0A192C2EC14F0F8EC15F0F2B2F292C6
:104000009EAA03D09E9AAAEC1BF0E55200EE1DF08A
:104010000A0EE80403E3E5CFEDFFFBD700EE13F053
:10402000140EE80403E3E5CFEDFFFBD7E5CFFAFF7D
:10403000E5CFF4FFE5CFF3FFE5CFF5FFE5CFF7FFE1
:10404000E5CFF6FFE5CFEAFFE5CFE9FFE5CFDAFF01
:0240500011005D
:0E4052002F0E926E96809682080EC16E180E8A
:10406000C26E040EC06EC2801200D9CFE6FFE1CF4F
:10407000D9FF020EE126DE6ADD6AC2503C0BE8423F
:10408000E842050A21E0010A1BE0070A15E0010ADF
:104090000FE0030A09E0010A03E0060A19E118D05B
:1040A000C30EC214040917D0C30EC214080913D0DA
:1040B000C30EC2140C090FD0C30EC21410090BD0CA
:1040C000C30EC214140907D0C30EC214180903D0BA
:1040D000C30EC2140009C26EC282C2B2FED7C4505F
:1040E000DE6EDD6ADECF16F0DDCF17F0D890163623
:1040F0001736D89016361736060EC3CFE7FF070BD4
:1041000004E0E742E79EE806FCE1E7501624146E5F
:10411000000E172014C0DEFFDD6EC2503C0BE842DB
:10412000E842060A26E0030A1FE0010A18E0070A2F
:1041300011E0010A0AE0030A03E0010A1FE11ED0B0
:10414000DECF2AFFDDCF2BFF1DD0DECF2CFFDDCF52
:104150002DFF18D0DECF2EFFDDCF2FFF13D0DECF07
:1041600030FFDDCF31FF0ED0DECF32FFDDCF33FFAA
:1041700009D0DECF34FFDDCF35FF04D0DECF28FFFE
:10418000DDCF29FFDECF14F0DDCF15F014C0F3FF33
:1041900015C0F4FF020EE15C02E2E16AE552E16E55
:0841A000E552E7CFD9FF120040
:0841A8001E0EF66E000EF76E0C
:1041B000000EF86E01010900F5501A6F0900F55064
:1041C0001B6F03E11A6701D03DD00900F550156F50
:1041D0000900F550166F0900F550176F0900090026
:1041E000F550E96E0900F550EA6E09000900090072
:1041F000F550186F0900F550196F09000900F6CF46
:104200001CF1F7CF1DF1F8CF1EF115C1F6FF16C155
:10421000F7FF17C1F8FF0101185302E1195307E036
:104220000900F550EE6E1807F8E21907F9D71CC11E
:10423000F6FF1DC1F7FF1EC1F8FF01011A07000EAE
:064240001B5BBFD712005A
:0A42460006500B02F3CF02F0F4CF94
:1042500003F00C02F3500326000EF420046E065007
:104260000D02F3500426000EF420056E06500E02D7
:10427000F350052607500B02F3500326F450042296
:10428000000E052207500C02F3500426F4500522BC
:1042900007500D02F350052608500B02F350042678
:1042A000F450052208500C02F350052609500B0269
:0642B000F3500526120088
:0A42B6003A002000232300524C328E
:1042C0003A00524C313A0041343A0041333A00410D
:1042D000323A0041313A003B00300041303A00218F
:1042E00021002E00202020202020202020202020FF
:1042F00020202020007048004E4F004E48005353AD
:0443000000434F0027
:0C430400056A046A036A026A200EE76E74
:10431000D890063607360836093602360336043694
:1043200005360B50025C0C5003580D5004580E50CB
:10433000055809E30B50025E0C50035A0D50045A05
:0C4340000E50055A062AE72EE4D71200A2
:04434C00056A046A90
:10435000036A180EE76ED89007360836093603361A
:10436000043605360C50035C0D5004580E500558A9
:1043700007E30C50035E0D50045A0E50055A072AED
:06438000E72EEAD712004F
:0A438600056A046A100EE76ED89075
:1043900008360936043605360D50045C0E500558B3
:1043A00005E30D50045E0E50055A082AE72EF0D79B
:0243B0001200F9
:0E43B200800EF36E00EE00F00F0E01D8120028
:1043C000EA6002D0EE6AFCD7F350E9601200EE6AB0
:0243D000FCD718
:0E43D2001EEE00F02EEE00F0F86A019CD4EC16
:0E43E00020F003EC00F034EC00F0FBD71200EC
:0243EE00056A5E
:1043F000080EE76ED890093605360E50055C02E3CC
:0A440000056E092AE72EF7D7120017
:06440A00000000000000AC
:10441000000000000000000000000000000000009C
:0A442000000001000100010001008E
:06442A000102040810204D
:1044300040800000000000000000000000000000BC
:0244400000007A
:0E44420000000000000000001010101010100C
:10445000101018181818181818181C1C1C1C1C1CD4
:104460001C1C1E1E1E1E1E1E1E1E1F1F1F1F1F1F6A
:104470001F1F0000000000000000000000000000FE
:10448000000000000000000000000000000000002C
:10449000000000000000000000000000000000001C
:0344A00000000019
:0D44A300000000D000222222072509100091
:0F44B000010000000000000000000000000000FC
:0144BF0000FC
:1044C00000000000000000000000000000000000EC
:1044D00000000000000000000000000000000010CC
:0744E00020408001020408E6
:020000040030CA
:0100010002FC
:0100020003FA
:010003001EDE
:010005008179
:010006008178
:010008000FE8
:01000900C036
:01000A000FE6
:01000B00E014
:01000C000FE4
:01000D0040B2
:00000001FF
